:100000000C9434000C943E000C943E000C943E0082
:100010000C943E000C943E000C943E000C943E0068
:100020000C943E000C943E000C943E000C943E0058
:100030000C943E000C943E000C943E000C943E0048
:100040000C943E000C943E000C943E000C943E0038
:100050000C943E000C943E000C943E000C943E0028
:100060000C943E000C943E0011241FBECFEFD8E04C
:10007000DEBFCDBF0E9440000C94F6020C9400003D
:10008000DF93CF93CDB7DEB7EC970FB6F894DEBF12
:100090000FBECDBF198618861F828FEF8E838FEF1C
:1000A0008D838FEF8C831B821A8219828CE0FE0174
:1000B0003A96DF01282F1D922A95E9F786E0FE0186
:1000C0007696DF01282F1D922A95E9F7AAE2B0E083
:1000D000EAE2F0E0808187608C93A7E2B0E0E7E29B
:1000E000F0E08081807C8C938F81988530E3843D23
:1000F000930711F418861F828985882309F051C05F
:100100008D818AAF9AAD992311F0A1E0AAAFBAAD63
:10011000B9AF18AE8B81882311F421E028AF89ADE7
:1001200038AD8323882339F0ABE2B0E0EBE2F0E0B6
:10013000808182608C938E818BAF9BAD992311F06F
:10014000A1E0ABAFBBADBFAB1EAA8A81882311F47F
:1001500021E02EAB8FA93EA98323882339F0ABE29F
:10016000B0E0EBE2F0E0808184608C938C818CAF16
:100170009CAD992311F0A1E0ACAFBCADBDAB1CAA06
:100180008981882311F421E02CAB8DA93CA983231C
:10019000882339F0ABE2B0E0EBE2F0E080818160EF
:1001A0008C9399858C81891738F4ABE2B0E0EBE24F
:1001B000F0E080818E7F8C9399858E81891738F449
:1001C000ABE2B0E0EBE2F0E080818B7F8C9399852D
:1001D0008D81891738F4ABE2B0E0EBE2F0E080818A
:1001E0008D7F8C9389858F5F89878F819885019614
:1001F00098878F838F819885A0E3843D9A0709F0C3
:1002000073CFE6E2F0E08081882F90E081709070FB
:100210001BAA009711F4B1E0BBABE6E2F0E08081ED
:10022000882F90E0847090701AAA009711F421E052
:100230002AAB8BA93AA98323A82FB0E0B9ABA8AB0E
:10024000E6E2F0E08081882F90E0807190701FA638
:100250001EA6009721F421E030E03FA72EA788A931
:1002600099A9AEA5BFA58A239B23009709F025C1B4
:10027000E6E2F0E08081882F90E0827090701DA609
:10028000009711F4B1E0BDA7E6E2F0E08081882F8D
:1002900090E0887090701CA6009711F421E02CA7C4
:1002A0008DA53CA58323A82FB0E0BBA7AAA7E6E2B3
:1002B000F0E08081882F90E08072907019A618A6D7
:1002C000009721F421E030E039A728A78AA59BA553
:1002D000A8A5B9A58A239B23009709F0EEC0E6E202
:1002E000F0E08081882F90E0817090700097F9F4A1
:1002F0008A859B851FA2B2E08A389B0710F421E013
:100300002FA38A859B851EA2009711F031E03EA3A2
:100310008FA19EA18923882329F081E089831B86F0
:100320001A8605C08C8181508C8381E08E8BE6E239
:10033000F0E08081882F90E0827090700097F9F44F
:100340008C859D851DA2A2E08A389A0710F4B1E041
:10035000BDA38C859D851CA2009711F021E02CA3E4
:100360008DA13CA18323882329F019821E8A1D8632
:100370001C8605C08C818F5F8C8381E08F8BE6E2C9
:10038000F0E08081882F90E0847090700097F9F4FD
:100390008E859F851BA2A2E08A389A0710F4B1E0EF
:1003A000BBA38E859F851AA2009711F021E02AA396
:1003B0008BA13AA18323882329F081E08B831F86B8
:1003C0001E8605C08D8181508D8381E0888FE6E295
:1003D000F0E08081882F90E0887090700097F1F4B1
:1003E0008889998919A2A2E08A389A0710F4B1E0A5
:1003F000B9A38889998918A2009711F021E028A350
:1004000089A138A18323882321F01B82198A188AA5
:1004100005C08D818F5F8D8381E0898FE6E2F0E0FA
:100420008081882F90E0807190700097F9F48A891C
:100430009B891F8EA2E08A389A0710F4B1E0BF8F23
:100440008A899B891E8E009711F021E02E8F8F8D57
:100450003E8D8323882329F081E08A831B8A1A8AB0
:1004600005C08E8181508E8381E08A8FE6E2F0E0C4
:100470008081882F90E0807290700097F1F48C89D1
:100480009D891D8EA2E08A389A0710F4B1E0BD8FD5
:100490008C899D891C8E009711F021E02C8F8D8D09
:1004A0003C8D8323882321F01A821D8A1C8A05C073
:1004B0008E818F5F8E8381E08B8F8E898130B1F446
:1004C000E6E2F0E08081882F90E0817090700097E4
:1004D00029F08A859B8501969B878A878A859B85DB
:1004E0008A30910519F41B861A861E8A8F898130FD
:1004F000B1F4E6E2F0E08081882F90E082709070A5
:10050000009729F08C859D8501969D878C878C8529
:100510009D858A30910519F41D861C861F8A888D59
:100520008130B1F4E6E2F0E08081882F90E08470C1
:100530009070009729F08E859F8501969F878E8702
:100540008E859F858A30910519F41F861E86188E28
:10055000898D8130B1F4E6E2F0E08081882F90E06F
:1005600088709070009729F0888999890196998BF5
:10057000888B888999898A30910519F4198A188A93
:10058000198E8A8D8130B1F4E6E2F0E08081882F07
:1005900090E080719070009729F08A899B8901967C
:1005A0009B8B8A8B8A899B898A30910519F41B8AD7
:1005B0001A8A1A8E8B8D813009F096CDE6E2F0E032
:1005C0008081882F90E080729070009729F08C894C
:1005D0009D8901969D8B8C8B8C899D898A30910594
:1005E00009F082CD1D8A1C8A1B8E7ECDF894FFCF28
:00000001FF
