:100000000C9434000C943E000C943E000C943E0082
:100010000C943E000C943E000C943E000C943E0068
:100020000C943E000C943E000C943E000C943E0058
:100030000C943E000C943E000C943E000C943E0048
:100040000C943E000C943E000C943E000C943E0038
:100050000C943E000C943E000C943E000C943E0028
:100060000C943E000C943E0011241FBECFEFD8E04C
:10007000DEBFCDBF0E9440000C9492030C940000A0
:10008000DF93CF93CDB7DEB7C154D0400FB6F8940D
:10009000DEBF0FBECDBF1B861A86198680EA9FE0A1
:1000A00098878F838EE18E838FEF8D8389E18C8398
:1000B0001B821A8219828CE0FE013C96DF01282FF8
:1000C0001D922A95E9F786E0FE017896DF01282F38
:1000D0001D922A95E9F7AAE2B0E0EAE2F0E0808119
:1000E00087608C93A7E2B0E0E7E2F0E08081807C5B
:1000F0008C9380E090E00E947C038D8380E190E00F
:100100000E947C038C8388E090E00E947C038E83B5
:1001100029853A858F8198852817390711F41A8621
:1001200019868B81813009F41D828A81813009F41E
:100130001E828981813009F41C828B858823F1F429
:100140008D81882339F0ABE2B0E0EBE2F0E0808112
:1001500082608C938E81882339F0ABE2B0E0EBE2D1
:10016000F0E0808184608C938C81882339F0ABE24D
:10017000B0E0EBE2F0E0808181608C939B858C8124
:10018000891738F4ABE2B0E0EBE2F0E080818E7FDB
:100190008C939B858E81891738F4ABE2B0E0EBE25B
:1001A000F0E080818B7F8C939B858D81891738F45B
:1001B000ABE2B0E0EBE2F0E080818D7F8C938B8549
:1001C0008F5F8B8789859A8501969A87898729858C
:1001D0003A858F8198852817390709F099CFE6E28B
:1001E000F0E08081882F90E08170907022961FAEA1
:1001F0002297009721F431E022963FAF2297E6E262
:10020000F0E08081882F90E08470907021961FAE7E
:100210002197009721F481E021968FAF21972296B4
:100220008FAD229721969FAD21978923A82FB0E00B
:10023000BFAFAEAFE6E2F0E08081882F90E0807142
:1002400090701DAE1CAE009721F421E030E03DAF70
:100250002CAF8EAD9FADACADBDAD8A239B23009777
:1002600009F446C0E6E2F0E08081882F90E08170DA
:1002700090701BAE009711F4B1E0BBAFE6E2F0E086
:100280008081882F90E0847090701AAE009711F4EE
:1002900021E02AAF8BAD3AAD8323A82FB0E0B9AFF0
:1002A000A8AFE6E2F0E08081882F90E08071907046
:1002B0001FAA1EAA009721F421E030E03FAB2EAB2D
:1002C00088AD99ADAEA9BFA98A239B23009751F6AB
:1002D00080E090E06D810E94840380E190E06C8179
:1002E0000E94840388E090E06E810E9484036BC1C9
:1002F000E6E2F0E08081882F90E0827090701DAA85
:10030000009711F4B1E0BDABE6E2F0E08081882F08
:1003100090E0887090701CAA009711F421E02CAB3B
:100320008DA93CA98323A82FB0E0BBABAAABE6E222
:10033000F0E08081882F90E08072907019AA18AA4E
:10034000009721F421E030E039AB28AB8AA99BA9C2
:10035000A8A9B9A98A239B23009709F446C0E6E21D
:10036000F0E08081882F90E0827090701FA6009747
:1003700011F4B1E0BFA7E6E2F0E08081882F90E0C1
:10038000887090701EA6009711F421E02EA78FA50B
:100390003EA58323A82FB0E0BDA7ACA7E6E2F0E01E
:1003A0008081882F90E0807290701BA61AA600971B
:1003B00021F421E030E03BA72AA78CA59DA5AAA5A2
:1003C000BBA58A239B23009751F680E090E06FEF56
:1003D0000E94840380E190E069E10E94840388E048
:1003E00090E06EE10E948403EEC0E6E2F0E08081DE
:1003F000882F90E0817090700097F9F48C859D852E
:1004000019A6B2E08A389B0710F421E029A78C8551
:100410009D8518A6009711F031E038A789A598A509
:100420008923882329F081E089831D861C8605C0E5
:100430008C8181508C8381E0888FE6E2F0E08081BE
:10044000882F90E0827090700097F9F48E859F85D8
:100450001FA2A2E08A389A0710F4B1E0BFA38E85EC
:100460009F851EA2009711F021E02EA38FA13EA12F
:100470008323882329F01982188E1F861E8605C0C3
:100480008C818F5F8C8381E0898FE6E2F0E0808150
:10049000882F90E0847090700097F9F4888999898A
:1004A0001DA2A2E08A389A0710F4B1E0BDA38889A2
:1004B00099891CA2009711F021E02CA38DA13CA1E9
:1004C0008323882329F081E08B83198A188A05C049
:1004D0008D8181508D8381E08A8FE6E2F0E080811A
:1004E000882F90E0887090700097F1F48A899B893A
:1004F0001BA2A2E08A389A0710F4B1E0BBA38A8954
:100500009B891AA2009711F021E02AA38BA13AA19E
:100510008323882321F01B821B8A1A8A05C08D81C0
:100520008F5F8D8381E08B8FE6E2F0E08081882F02
:1005300090E0807190700097F9F48C899D8919A2E0
:10054000A2E08A389A0710F4B1E0B9A38C899D899A
:1005500018A2009711F021E028A389A138A18323D4
:10056000882329F081E08A831D8A1C8A05C08E8138
:1005700081508E8381E08C8FE6E2F0E08081882FCD
:1005800090E0807290700097F1F48E899F891F8EA1
:10059000A2E08A389A0710F4B1E0BF8F8E899F8954
:1005A0001E8E009711F021E02E8F8F8D3E8D8323BC
:1005B000882321F01A821F8A1E8A05C08E818F5FD0
:1005C0008E8381E08D8F888D8130B1F4E6E2F0E09A
:1005D0008081882F90E081709070009729F08C8541
:1005E0009D8501969D878C878C859D858A30910598
:1005F00019F41D861C86188E898D8130B1F4E6E2CF
:10060000F0E08081882F90E082709070009729F050
:100610008E859F8501969F878E878E859F858A30E0
:10062000910519F41F861E86198E8A8D8130B1F4CA
:10063000E6E2F0E08081882F90E08470907000976F
:1006400029F0888999890196998B888B888999895D
:100650008A30910519F4198A188A1A8E8B8D813087
:10066000B1F4E6E2F0E08081882F90E0887090702D
:10067000009729F08A899B8901969B8B8A8B8A89AE
:100680009B898A30910519F41B8A1A8A1B8E8C8DDE
:100690008130B1F4E6E2F0E08081882F90E0807153
:1006A0009070009729F08C899D8901969D8B8C8B89
:1006B0008C899D898A30910519F41D8A1C8A1C8EAB
:1006C0008D8D813009F024CDE6E2F0E08081882F25
:1006D00090E080729070009729F08E899F89019632
:1006E0009F8B8E8B8E899F898A30910509F010CD62
:1006F0001F8A1E8A1D8E0CCDF999FECF92BD81BD39
:10070000F89A992780B50895262FF999FECF1FBA38
:1007100092BD81BD20BD0FB6F894FA9AF99A0FBE2A
:0807200001960895F894FFCF43
:00000001FF
